{
  "_format": "hh-sol-artifact-1",
  "contractName": "Voting",
  "sourceName": "contracts/Voting.sol",
  "abi": [
    {
      "inputs": [],
      "stateMutability": "nonpayable",
      "type": "constructor"
    },
    {
      "anonymous": false,
      "inputs": [
        {
          "indexed": false,
          "internalType": "uint256",
          "name": "candidateID",
          "type": "uint256"
        }
      ],
      "name": "AddedCandidate",
      "type": "event"
    },
    {
      "inputs": [],
      "name": "getAllCandidates",
      "outputs": [
        {
          "components": [
            {
              "internalType": "string",
              "name": "name",
              "type": "string"
            },
            {
              "internalType": "string",
              "name": "party",
              "type": "string"
            }
          ],
          "internalType": "struct Voting.Candidate[]",
          "name": "",
          "type": "tuple[]"
        }
      ],
      "stateMutability": "view",
      "type": "function"
    },
    {
      "inputs": [],
      "name": "getNumOfVoters",
      "outputs": [
        {
          "internalType": "uint256",
          "name": "",
          "type": "uint256"
        }
      ],
      "stateMutability": "view",
      "type": "function"
    },
    {
      "inputs": [],
      "name": "getOwner",
      "outputs": [
        {
          "internalType": "address",
          "name": "",
          "type": "address"
        }
      ],
      "stateMutability": "view",
      "type": "function"
    },
    {
      "inputs": [
        {
          "internalType": "string",
          "name": "_email",
          "type": "string"
        },
        {
          "internalType": "string",
          "name": "_party",
          "type": "string"
        }
      ],
      "name": "registerEmail",
      "outputs": [],
      "stateMutability": "nonpayable",
      "type": "function"
    },
    {
      "inputs": [
        {
          "internalType": "string",
          "name": "_name",
          "type": "string"
        },
        {
          "internalType": "string",
          "name": "_party",
          "type": "string"
        }
      ],
      "name": "registerParty",
      "outputs": [],
      "stateMutability": "nonpayable",
      "type": "function"
    },
    {
      "inputs": [
        {
          "internalType": "string",
          "name": "_party",
          "type": "string"
        }
      ],
      "name": "totalVotes",
      "outputs": [
        {
          "internalType": "uint256",
          "name": "",
          "type": "uint256"
        }
      ],
      "stateMutability": "view",
      "type": "function"
    }
  ],
  "bytecode": "0x608060405234801561001057600080fd5b50336000806101000a81548173ffffffffffffffffffffffffffffffffffffffff021916908373ffffffffffffffffffffffffffffffffffffffff16021790555061121b806100606000396000f3fe608060405234801561001057600080fd5b50600436106100625760003560e01c80632e6997fe146100675780635900f8f8146100855780635aba6426146100b557806365fc783c146100d1578063893d20e8146100ef5780638a23836b1461010d575b600080fd5b61006f610129565b60405161007c9190610943565b60405180910390f35b61009f600480360381019061009a9190610aae565b61030d565b6040516100ac9190610b10565b60405180910390f35b6100cf60048036038101906100ca9190610b2b565b610385565b005b6100d9610436565b6040516100e69190610b10565b60405180910390f35b6100f7610499565b6040516101049190610be4565b60405180910390f35b61012760048036038101906101229190610b2b565b6104c2565b005b6060600060015467ffffffffffffffff81111561014957610148610983565b5b60405190808252806020026020018201604052801561018257816020015b61016f610793565b8152602001906001900390816101675790505b50905060005b60015481101561030557600360008281526020019081526020016000206040518060400160405290816000820180546101c090610c2e565b80601f01602080910402602001604051908101604052809291908181526020018280546101ec90610c2e565b80156102395780601f1061020e57610100808354040283529160200191610239565b820191906000526020600020905b81548152906001019060200180831161021c57829003601f168201915b5050505050815260200160018201805461025290610c2e565b80601f016020809104026020016040519081016040528092919081815260200182805461027e90610c2e565b80156102cb5780601f106102a0576101008083540402835291602001916102cb565b820191906000526020600020905b8154815290600101906020018083116102ae57829003601f168201915b5050505050815250508282815181106102e7576102e6610c5f565b5b602002602001018190525080806102fd90610cbd565b915050610188565b508091505090565b6000806000905060005b60025481101561037b5783805190602001206004600083815260200190815260200160002060010160405161034c9190610da8565b60405180910390200361036857818061036490610cbd565b9250505b808061037390610cbd565b915050610317565b5080915050919050565b6006816040516103959190610dfb565b908152602001604051809103902060009054906101000a900460ff16156103f1576040517f08c379a00000000000000000000000000000000000000000000000000000000081526004016103e890610e6f565b60405180910390fd5b6103fb82826105de565b600160068260405161040d9190610dfb565b908152602001604051809103902060006101000a81548160ff0219169083151502179055505050565b60008060009054906101000a900473ffffffffffffffffffffffffffffffffffffffff1673ffffffffffffffffffffffffffffffffffffffff163373ffffffffffffffffffffffffffffffffffffffff161461049157600080fd5b600254905090565b60008060009054906101000a900473ffffffffffffffffffffffffffffffffffffffff16905090565b6005826040516104d29190610dfb565b908152602001604051809103902060009054906101000a900460ff161561052e576040517f08c379a000000000000000000000000000000000000000000000000000000000815260040161052590610edb565b60405180910390fd5b60068160405161053e9190610dfb565b908152602001604051809103902060009054906101000a900460ff16610599576040517f08c379a000000000000000000000000000000000000000000000000000000000815260040161059090610f47565b60405180910390fd5b6105a382826106e4565b60016005836040516105b59190610dfb565b908152602001604051809103902060006101000a81548160ff0219169083151502179055505050565b60008054906101000a900473ffffffffffffffffffffffffffffffffffffffff1673ffffffffffffffffffffffffffffffffffffffff163373ffffffffffffffffffffffffffffffffffffffff161461063657600080fd5b60006001600081548092919061064b90610cbd565b91905055905060405180604001604052808481526020018381525060036000838152602001908152602001600020600082015181600001908161068e9190611113565b5060208201518160010190816106a49190611113565b509050507fec542c373a064661ffef02d633752debf28f3e6c9f253680822d9ccf8b47aec6816040516106d79190610b10565b60405180910390a1505050565b600115156006826040516106f89190610dfb565b908152602001604051809103902060009054906101000a900460ff1615150361078f5760006002600081548092919061073090610cbd565b9190505590506040518060400160405280848152602001838152506004600083815260200190815260200160002060008201518160000190816107739190611113565b5060208201518160010190816107899190611113565b50905050505b5050565b604051806040016040528060608152602001606081525090565b600081519050919050565b600082825260208201905092915050565b6000819050602082019050919050565b600081519050919050565b600082825260208201905092915050565b60005b838110156108135780820151818401526020810190506107f8565b60008484015250505050565b6000601f19601f8301169050919050565b600061083b826107d9565b61084581856107e4565b93506108558185602086016107f5565b61085e8161081f565b840191505092915050565b600060408301600083015184820360008601526108868282610830565b915050602083015184820360208601526108a08282610830565b9150508091505092915050565b60006108b98383610869565b905092915050565b6000602082019050919050565b60006108d9826107ad565b6108e381856107b8565b9350836020820285016108f5856107c9565b8060005b85811015610931578484038952815161091285826108ad565b945061091d836108c1565b925060208a019950506001810190506108f9565b50829750879550505050505092915050565b6000602082019050818103600083015261095d81846108ce565b905092915050565b6000604051905090565b600080fd5b600080fd5b600080fd5b600080fd5b7f4e487b7100000000000000000000000000000000000000000000000000000000600052604160045260246000fd5b6109bb8261081f565b810181811067ffffffffffffffff821117156109da576109d9610983565b5b80604052505050565b60006109ed610965565b90506109f982826109b2565b919050565b600067ffffffffffffffff821115610a1957610a18610983565b5b610a228261081f565b9050602081019050919050565b82818337600083830152505050565b6000610a51610a4c846109fe565b6109e3565b905082815260208101848484011115610a6d57610a6c61097e565b5b610a78848285610a2f565b509392505050565b600082601f830112610a9557610a94610979565b5b8135610aa5848260208601610a3e565b91505092915050565b600060208284031215610ac457610ac361096f565b5b600082013567ffffffffffffffff811115610ae257610ae1610974565b5b610aee84828501610a80565b91505092915050565b6000819050919050565b610b0a81610af7565b82525050565b6000602082019050610b256000830184610b01565b92915050565b60008060408385031215610b4257610b4161096f565b5b600083013567ffffffffffffffff811115610b6057610b5f610974565b5b610b6c85828601610a80565b925050602083013567ffffffffffffffff811115610b8d57610b8c610974565b5b610b9985828601610a80565b9150509250929050565b600073ffffffffffffffffffffffffffffffffffffffff82169050919050565b6000610bce82610ba3565b9050919050565b610bde81610bc3565b82525050565b6000602082019050610bf96000830184610bd5565b92915050565b7f4e487b7100000000000000000000000000000000000000000000000000000000600052602260045260246000fd5b60006002820490506001821680610c4657607f821691505b602082108103610c5957610c58610bff565b5b50919050565b7f4e487b7100000000000000000000000000000000000000000000000000000000600052603260045260246000fd5b7f4e487b7100000000000000000000000000000000000000000000000000000000600052601160045260246000fd5b6000610cc882610af7565b91507fffffffffffffffffffffffffffffffffffffffffffffffffffffffffffffffff8203610cfa57610cf9610c8e565b5b600182019050919050565b600081905092915050565b60008190508160005260206000209050919050565b60008154610d3281610c2e565b610d3c8186610d05565b94506001821660008114610d575760018114610d6c57610d9f565b60ff1983168652811515820286019350610d9f565b610d7585610d10565b60005b83811015610d9757815481890152600182019150602081019050610d78565b838801955050505b50505092915050565b6000610db48284610d25565b915081905092915050565b600081905092915050565b6000610dd5826107d9565b610ddf8185610dbf565b9350610def8185602086016107f5565b80840191505092915050565b6000610e078284610dca565b915081905092915050565b600082825260208201905092915050565b7f5468697320506172747920697320616c72656164792072656769737465726564600082015250565b6000610e59602083610e12565b9150610e6482610e23565b602082019050919050565b60006020820190508181036000830152610e8881610e4c565b9050919050565b7f5468697320456d61696c20697320616c72656164792072656769737465726564600082015250565b6000610ec5602083610e12565b9150610ed082610e8f565b602082019050919050565b60006020820190508181036000830152610ef481610eb8565b9050919050565b7f5468697320706172747920646f6573206e6f7420657869737400000000000000600082015250565b6000610f31601983610e12565b9150610f3c82610efb565b602082019050919050565b60006020820190508181036000830152610f6081610f24565b9050919050565b60008190508160005260206000209050919050565b60006020601f8301049050919050565b600082821b905092915050565b600060088302610fc97fffffffffffffffffffffffffffffffffffffffffffffffffffffffffffffffff82610f8c565b610fd38683610f8c565b95508019841693508086168417925050509392505050565b6000819050919050565b600061101061100b61100684610af7565b610feb565b610af7565b9050919050565b6000819050919050565b61102a83610ff5565b61103e61103682611017565b848454610f99565b825550505050565b600090565b611053611046565b61105e818484611021565b505050565b5b818110156110825761107760008261104b565b600181019050611064565b5050565b601f8211156110c75761109881610f67565b6110a184610f7c565b810160208510156110b0578190505b6110c46110bc85610f7c565b830182611063565b50505b505050565b600082821c905092915050565b60006110ea600019846008026110cc565b1980831691505092915050565b600061110383836110d9565b9150826002028217905092915050565b61111c826107d9565b67ffffffffffffffff81111561113557611134610983565b5b61113f8254610c2e565b61114a828285611086565b600060209050601f83116001811461117d576000841561116b578287015190505b61117585826110f7565b8655506111dd565b601f19841661118b86610f67565b60005b828110156111b35784890151825560018201915060208501945060208101905061118e565b868310156111d057848901516111cc601f8916826110d9565b8355505b6001600288020188555050505b50505050505056fea2646970667358221220d4a49ce8cb99da9fc17cb134b4ee66fced7ab8ecb3cfc12194392b3d397ca38164736f6c63430008110033",
  "linkReferences": {},
  "deployedLinkReferences": {}
}